{
  "contractName": "Transfer",
  "abi": [
    {
      "inputs": [],
      "stateMutability": "nonpayable",
      "type": "constructor"
    },
    {
      "anonymous": false,
      "inputs": [
        {
          "indexed": false,
          "internalType": "string",
          "name": "message",
          "type": "string"
        }
      ],
      "name": "LogMessage",
      "type": "event"
    },
    {
      "anonymous": false,
      "inputs": [
        {
          "indexed": false,
          "internalType": "address",
          "name": "_to",
          "type": "address"
        },
        {
          "indexed": false,
          "internalType": "address",
          "name": "_from",
          "type": "address"
        },
        {
          "indexed": false,
          "internalType": "uint256",
          "name": "amt",
          "type": "uint256"
        }
      ],
      "name": "Pay",
      "type": "event"
    },
    {
      "inputs": [
        {
          "internalType": "address payable",
          "name": "_to",
          "type": "address"
        }
      ],
      "name": "pay",
      "outputs": [
        {
          "internalType": "bool",
          "name": "",
          "type": "bool"
        }
      ],
      "stateMutability": "payable",
      "type": "function",
      "payable": true
    },
    {
      "inputs": [],
      "name": "isRetailer",
      "outputs": [
        {
          "internalType": "bool",
          "name": "",
          "type": "bool"
        }
      ],
      "stateMutability": "view",
      "type": "function",
      "constant": true
    },
    {
      "inputs": [],
      "name": "isUser",
      "outputs": [
        {
          "internalType": "bool",
          "name": "",
          "type": "bool"
        }
      ],
      "stateMutability": "view",
      "type": "function",
      "constant": true
    },
    {
      "inputs": [
        {
          "internalType": "string",
          "name": "message",
          "type": "string"
        }
      ],
      "name": "print",
      "outputs": [],
      "stateMutability": "nonpayable",
      "type": "function"
    },
    {
      "inputs": [
        {
          "internalType": "uint256",
          "name": "itemId",
          "type": "uint256"
        }
      ],
      "name": "getItemById",
      "outputs": [
        {
          "components": [
            {
              "internalType": "uint256",
              "name": "itemId",
              "type": "uint256"
            },
            {
              "internalType": "string",
              "name": "itemName",
              "type": "string"
            },
            {
              "internalType": "uint256",
              "name": "categoryId",
              "type": "uint256"
            },
            {
              "internalType": "uint256",
              "name": "itemPrice",
              "type": "uint256"
            },
            {
              "internalType": "uint256",
              "name": "quantity",
              "type": "uint256"
            },
            {
              "internalType": "uint256",
              "name": "pricePerQuantity",
              "type": "uint256"
            },
            {
              "internalType": "address payable",
              "name": "sellerId",
              "type": "address"
            }
          ],
          "internalType": "struct Transfer.ItemStruct",
          "name": "",
          "type": "tuple"
        }
      ],
      "stateMutability": "view",
      "type": "function",
      "constant": true
    },
    {
      "inputs": [],
      "name": "getAllItems",
      "outputs": [
        {
          "components": [
            {
              "internalType": "uint256",
              "name": "itemId",
              "type": "uint256"
            },
            {
              "internalType": "string",
              "name": "itemName",
              "type": "string"
            },
            {
              "internalType": "uint256",
              "name": "categoryId",
              "type": "uint256"
            },
            {
              "internalType": "uint256",
              "name": "itemPrice",
              "type": "uint256"
            },
            {
              "internalType": "uint256",
              "name": "quantity",
              "type": "uint256"
            },
            {
              "internalType": "uint256",
              "name": "pricePerQuantity",
              "type": "uint256"
            },
            {
              "internalType": "address payable",
              "name": "sellerId",
              "type": "address"
            }
          ],
          "internalType": "struct Transfer.ItemStruct[]",
          "name": "",
          "type": "tuple[]"
        }
      ],
      "stateMutability": "view",
      "type": "function",
      "constant": true
    },
    {
      "inputs": [
        {
          "internalType": "address",
          "name": "userId",
          "type": "address"
        },
        {
          "internalType": "string",
          "name": "name",
          "type": "string"
        },
        {
          "internalType": "string",
          "name": "homeAddr",
          "type": "string"
        }
      ],
      "name": "addUser",
      "outputs": [],
      "stateMutability": "nonpayable",
      "type": "function"
    },
    {
      "inputs": [],
      "name": "getAllUsers",
      "outputs": [
        {
          "components": [
            {
              "internalType": "address",
              "name": "userId",
              "type": "address"
            },
            {
              "internalType": "string",
              "name": "userName",
              "type": "string"
            },
            {
              "internalType": "string",
              "name": "homeAddress",
              "type": "string"
            }
          ],
          "internalType": "struct Transfer.UserStruct[]",
          "name": "",
          "type": "tuple[]"
        }
      ],
      "stateMutability": "view",
      "type": "function",
      "constant": true
    },
    {
      "inputs": [
        {
          "internalType": "address",
          "name": "userId",
          "type": "address"
        }
      ],
      "name": "getUserById",
      "outputs": [
        {
          "components": [
            {
              "internalType": "address",
              "name": "userId",
              "type": "address"
            },
            {
              "internalType": "string",
              "name": "userName",
              "type": "string"
            },
            {
              "internalType": "string",
              "name": "homeAddress",
              "type": "string"
            }
          ],
          "internalType": "struct Transfer.UserStruct",
          "name": "",
          "type": "tuple"
        }
      ],
      "stateMutability": "view",
      "type": "function",
      "constant": true
    },
    {
      "inputs": [
        {
          "internalType": "address",
          "name": "userId",
          "type": "address"
        },
        {
          "internalType": "uint256",
          "name": "itemId",
          "type": "uint256"
        },
        {
          "internalType": "string",
          "name": "name",
          "type": "string"
        },
        {
          "internalType": "uint256",
          "name": "catId",
          "type": "uint256"
        },
        {
          "internalType": "uint256",
          "name": "price",
          "type": "uint256"
        },
        {
          "internalType": "uint256",
          "name": "quantity",
          "type": "uint256"
        },
        {
          "internalType": "address payable",
          "name": "sellerId",
          "type": "address"
        }
      ],
      "name": "addItemToCart",
      "outputs": [],
      "stateMutability": "nonpayable",
      "type": "function"
    },
    {
      "inputs": [
        {
          "internalType": "address",
          "name": "userId",
          "type": "address"
        }
      ],
      "name": "viewCart",
      "outputs": [
        {
          "components": [
            {
              "internalType": "uint256",
              "name": "itemId",
              "type": "uint256"
            },
            {
              "internalType": "string",
              "name": "itemName",
              "type": "string"
            },
            {
              "internalType": "uint256",
              "name": "categoryId",
              "type": "uint256"
            },
            {
              "internalType": "uint256",
              "name": "itemPrice",
              "type": "uint256"
            },
            {
              "internalType": "uint256",
              "name": "quantity",
              "type": "uint256"
            },
            {
              "internalType": "uint256",
              "name": "pricePerQuantity",
              "type": "uint256"
            },
            {
              "internalType": "address payable",
              "name": "sellerId",
              "type": "address"
            }
          ],
          "internalType": "struct Transfer.ItemStruct[]",
          "name": "",
          "type": "tuple[]"
        }
      ],
      "stateMutability": "view",
      "type": "function",
      "constant": true
    },
    {
      "inputs": [
        {
          "internalType": "address",
          "name": "userId",
          "type": "address"
        },
        {
          "internalType": "uint256",
          "name": "itemId",
          "type": "uint256"
        },
        {
          "internalType": "uint256",
          "name": "newQuant",
          "type": "uint256"
        }
      ],
      "name": "updateCart",
      "outputs": [],
      "stateMutability": "nonpayable",
      "type": "function"
    },
    {
      "inputs": [
        {
          "internalType": "address",
          "name": "userId",
          "type": "address"
        },
        {
          "internalType": "uint256",
          "name": "itemId",
          "type": "uint256"
        }
      ],
      "name": "removeItemFromCart",
      "outputs": [
        {
          "components": [
            {
              "internalType": "uint256",
              "name": "itemId",
              "type": "uint256"
            },
            {
              "internalType": "string",
              "name": "itemName",
              "type": "string"
            },
            {
              "internalType": "uint256",
              "name": "categoryId",
              "type": "uint256"
            },
            {
              "internalType": "uint256",
              "name": "itemPrice",
              "type": "uint256"
            },
            {
              "internalType": "uint256",
              "name": "quantity",
              "type": "uint256"
            },
            {
              "internalType": "uint256",
              "name": "pricePerQuantity",
              "type": "uint256"
            },
            {
              "internalType": "address payable",
              "name": "sellerId",
              "type": "address"
            }
          ],
          "internalType": "struct Transfer.ItemStruct[]",
          "name": "",
          "type": "tuple[]"
        }
      ],
      "stateMutability": "nonpayable",
      "type": "function"
    },
    {
      "inputs": [
        {
          "internalType": "address",
          "name": "retailerId",
          "type": "address"
        },
        {
          "internalType": "string",
          "name": "name",
          "type": "string"
        },
        {
          "internalType": "string",
          "name": "homeAddr",
          "type": "string"
        }
      ],
      "name": "addRetailer",
      "outputs": [],
      "stateMutability": "nonpayable",
      "type": "function"
    },
    {
      "inputs": [
        {
          "internalType": "address",
          "name": "retId",
          "type": "address"
        }
      ],
      "name": "getRetailerById",
      "outputs": [
        {
          "components": [
            {
              "internalType": "address",
              "name": "retailerId",
              "type": "address"
            },
            {
              "internalType": "string",
              "name": "retailerName",
              "type": "string"
            },
            {
              "internalType": "string",
              "name": "homeAddress",
              "type": "string"
            }
          ],
          "internalType": "struct Transfer.RetailerStruct",
          "name": "",
          "type": "tuple"
        }
      ],
      "stateMutability": "view",
      "type": "function",
      "constant": true
    },
    {
      "inputs": [],
      "name": "getAllRetailer",
      "outputs": [
        {
          "components": [
            {
              "internalType": "address",
              "name": "retailerId",
              "type": "address"
            },
            {
              "internalType": "string",
              "name": "retailerName",
              "type": "string"
            },
            {
              "internalType": "string",
              "name": "homeAddress",
              "type": "string"
            }
          ],
          "internalType": "struct Transfer.RetailerStruct[]",
          "name": "",
          "type": "tuple[]"
        }
      ],
      "stateMutability": "view",
      "type": "function",
      "constant": true
    },
    {
      "inputs": [
        {
          "internalType": "string",
          "name": "name",
          "type": "string"
        },
        {
          "internalType": "uint256",
          "name": "catId",
          "type": "uint256"
        },
        {
          "internalType": "uint256",
          "name": "price",
          "type": "uint256"
        },
        {
          "internalType": "uint256",
          "name": "quantity",
          "type": "uint256"
        },
        {
          "internalType": "address payable",
          "name": "sellerId",
          "type": "address"
        },
        {
          "internalType": "uint256",
          "name": "itemId",
          "type": "uint256"
        }
      ],
      "name": "addnewItemToInvt",
      "outputs": [],
      "stateMutability": "nonpayable",
      "type": "function"
    },
    {
      "inputs": [
        {
          "internalType": "address",
          "name": "sellerId",
          "type": "address"
        }
      ],
      "name": "viewInventory",
      "outputs": [
        {
          "components": [
            {
              "internalType": "uint256",
              "name": "itemId",
              "type": "uint256"
            },
            {
              "internalType": "string",
              "name": "itemName",
              "type": "string"
            },
            {
              "internalType": "uint256",
              "name": "categoryId",
              "type": "uint256"
            },
            {
              "internalType": "uint256",
              "name": "itemPrice",
              "type": "uint256"
            },
            {
              "internalType": "uint256",
              "name": "quantity",
              "type": "uint256"
            },
            {
              "internalType": "uint256",
              "name": "pricePerQuantity",
              "type": "uint256"
            },
            {
              "internalType": "address payable",
              "name": "sellerId",
              "type": "address"
            }
          ],
          "internalType": "struct Transfer.ItemStruct[]",
          "name": "",
          "type": "tuple[]"
        }
      ],
      "stateMutability": "view",
      "type": "function",
      "constant": true
    },
    {
      "inputs": [
        {
          "internalType": "uint256",
          "name": "itemId",
          "type": "uint256"
        },
        {
          "internalType": "uint256",
          "name": "newQuant",
          "type": "uint256"
        },
        {
          "internalType": "address",
          "name": "sellerId",
          "type": "address"
        }
      ],
      "name": "UpdateInventory",
      "outputs": [],
      "stateMutability": "nonpayable",
      "type": "function"
    },
    {
      "inputs": [
        {
          "internalType": "address",
          "name": "retailerId",
          "type": "address"
        },
        {
          "internalType": "uint256",
          "name": "itemId",
          "type": "uint256"
        }
      ],
      "name": "removeItemInventory",
      "outputs": [],
      "stateMutability": "nonpayable",
      "type": "function"
    },
    {
      "inputs": [
        {
          "internalType": "address",
          "name": "userId",
          "type": "address"
        }
      ],
      "name": "viewOrdersByUserId",
      "outputs": [
        {
          "components": [
            {
              "internalType": "uint256",
              "name": "itemId",
              "type": "uint256"
            },
            {
              "internalType": "string",
              "name": "itemName",
              "type": "string"
            },
            {
              "internalType": "uint256",
              "name": "categoryId",
              "type": "uint256"
            },
            {
              "internalType": "uint256",
              "name": "itemPrice",
              "type": "uint256"
            },
            {
              "internalType": "uint256",
              "name": "quantity",
              "type": "uint256"
            },
            {
              "internalType": "uint256",
              "name": "pricePerQuantity",
              "type": "uint256"
            },
            {
              "internalType": "address payable",
              "name": "sellerId",
              "type": "address"
            }
          ],
          "internalType": "struct Transfer.ItemStruct[]",
          "name": "",
          "type": "tuple[]"
        }
      ],
      "stateMutability": "view",
      "type": "function",
      "constant": true
    },
    {
      "inputs": [
        {
          "internalType": "address",
          "name": "userId",
          "type": "address"
        }
      ],
      "name": "placeOrder",
      "outputs": [],
      "stateMutability": "payable",
      "type": "function",
      "payable": true
    }
  ],
  "bytecode": "0x60806040526000600a5534801561001557600080fd5b50336000806101000a81548173ffffffffffffffffffffffffffffffffffffffff021916908373ffffffffffffffffffffffffffffffffffffffff160217905550614d6e806100656000396000f3fe6080604052600436106101355760003560e01c80638325414b116100ab578063d7554a681161006f578063d7554a681461041c578063dff3e63d14610445578063e2842d791461046e578063e719afe714610499578063ec1c5c33146104d6578063ed6e12fa1461051357610135565b80638325414b14610334578063857ddb041461035d578063a99c7a3914610386578063b10c784a146103c3578063cd2f0710146103df57610135565b8063477ba645116100fd578063477ba645146102385780634ba1d6aa146102635780634c22c1191461028e5780635d28dc01146102b957806368835c44146102e2578063825381551461030b57610135565b8063099e00f31461013a5780630c11dedd1461017757806311114af1146101a757806313f8befc146101d05780632301ab1e146101fb575b600080fd5b34801561014657600080fd5b50610161600480360381019061015c9190613a5a565b610550565b60405161016e9190613b7d565b60405180910390f35b610191600480360381019061018c9190613bdd565b610729565b60405161019e9190613c25565b60405180910390f35b3480156101b357600080fd5b506101ce60048036038101906101c99190613d75565b61085b565b005b3480156101dc57600080fd5b506101e5610895565b6040516101f29190613ed7565b60405180910390f35b34801561020757600080fd5b50610222600480360381019061021d9190613a5a565b610b46565b60405161022f9190613f50565b60405180910390f35b34801561024457600080fd5b5061024d610d1f565b60405161025a9190613c25565b60405180910390f35b34801561026f57600080fd5b50610278610dc7565b60405161028591906140f8565b60405180910390f35b34801561029a57600080fd5b506102a3610fcc565b6040516102b09190613c25565b60405180910390f35b3480156102c557600080fd5b506102e060048036038101906102db9190614146565b611074565b005b3480156102ee57600080fd5b5061030960048036038101906103049190614204565b6111d0565b005b34801561031757600080fd5b50610332600480360381019061032d91906142ad565b611488565b005b34801561034057600080fd5b5061035b60048036038101906103569190614300565b6115f0565b005b34801561036957600080fd5b50610384600480360381019061037f9190614340565b611a7e565b005b34801561039257600080fd5b506103ad60048036038101906103a89190614300565b611c5e565b6040516103ba91906140f8565b60405180910390f35b6103dd60048036038101906103d89190613a5a565b612363565b005b3480156103eb57600080fd5b50610406600480360381019061040191906143cb565b612acd565b6040516104139190614494565b60405180910390f35b34801561042857600080fd5b50610443600480360381019061043e9190614340565b612c1a565b005b34801561045157600080fd5b5061046c600480360381019061046791906144b6565b612dfa565b005b34801561047a57600080fd5b50610483612f62565b6040516104909190614622565b60405180910390f35b3480156104a557600080fd5b506104c060048036038101906104bb9190613a5a565b613213565b6040516104cd91906140f8565b60405180910390f35b3480156104e257600080fd5b506104fd60048036038101906104f89190613a5a565b6133cb565b60405161050a91906140f8565b60405180910390f35b34801561051f57600080fd5b5061053a60048036038101906105359190613a5a565b613596565b60405161054791906140f8565b60405180910390f35b61055861374e565b6000600760008473ffffffffffffffffffffffffffffffffffffffff1673ffffffffffffffffffffffffffffffffffffffff1681526020019081526020016000206040518060600160405290816000820160009054906101000a900473ffffffffffffffffffffffffffffffffffffffff1673ffffffffffffffffffffffffffffffffffffffff1673ffffffffffffffffffffffffffffffffffffffff16815260200160018201805461060a90614673565b80601f016020809104026020016040519081016040528092919081815260200182805461063690614673565b80156106835780601f1061065857610100808354040283529160200191610683565b820191906000526020600020905b81548152906001019060200180831161066657829003601f168201915b5050505050815260200160028201805461069c90614673565b80601f01602080910402602001604051908101604052809291908181526020018280546106c890614673565b80156107155780601f106106ea57610100808354040283529160200191610715565b820191906000526020600020905b8154815290600101906020018083116106f857829003601f168201915b505050505081525050905080915050919050565b600081600160006101000a81548173ffffffffffffffffffffffffffffffffffffffff021916908373ffffffffffffffffffffffffffffffffffffffff160217905550600160009054906101000a900473ffffffffffffffffffffffffffffffffffffffff1673ffffffffffffffffffffffffffffffffffffffff166108fc349081150290604051600060405180830381858888f193505050501580156107d4573d6000803e3d6000fd5b507f288d9a5737d39d766acb848da277a970d9ee31f9115e17490b9393e282fa7b4d600160009054906101000a900473ffffffffffffffffffffffffffffffffffffffff1660008054906101000a900473ffffffffffffffffffffffffffffffffffffffff163460405161084a93929190614712565b60405180910390a160019050919050565b7f96561394bac381230de4649200e8831afcab1f451881bbade9ef209f6dd304808160405161088a9190614793565b60405180910390a150565b60606000600880549050905060008167ffffffffffffffff8111156108bd576108bc613c4a565b5b6040519080825280602002602001820160405280156108f657816020015b6108e361374e565b8152602001906001900390816108db5790505b50905060005b82811015610b3d5760006008828154811061091a576109196147b5565b5b9060005260206000200160009054906101000a900473ffffffffffffffffffffffffffffffffffffffff169050600760008273ffffffffffffffffffffffffffffffffffffffff1673ffffffffffffffffffffffffffffffffffffffff1681526020019081526020016000206040518060600160405290816000820160009054906101000a900473ffffffffffffffffffffffffffffffffffffffff1673ffffffffffffffffffffffffffffffffffffffff1673ffffffffffffffffffffffffffffffffffffffff1681526020016001820180546109f790614673565b80601f0160208091040260200160405190810160405280929190818152602001828054610a2390614673565b8015610a705780601f10610a4557610100808354040283529160200191610a70565b820191906000526020600020905b815481529060010190602001808311610a5357829003601f168201915b50505050508152602001600282018054610a8990614673565b80601f0160208091040260200160405190810160405280929190818152602001828054610ab590614673565b8015610b025780601f10610ad757610100808354040283529160200191610b02565b820191906000526020600020905b815481529060010190602001808311610ae557829003601f168201915b505050505081525050838381518110610b1e57610b1d6147b5565b5b6020026020010181905250508080610b3590614813565b9150506108fc565b50809250505090565b610b4e613785565b6000600460008473ffffffffffffffffffffffffffffffffffffffff1673ffffffffffffffffffffffffffffffffffffffff1681526020019081526020016000206040518060600160405290816000820160009054906101000a900473ffffffffffffffffffffffffffffffffffffffff1673ffffffffffffffffffffffffffffffffffffffff1673ffffffffffffffffffffffffffffffffffffffff168152602001600182018054610c0090614673565b80601f0160208091040260200160405190810160405280929190818152602001828054610c2c90614673565b8015610c795780601f10610c4e57610100808354040283529160200191610c79565b820191906000526020600020905b815481529060010190602001808311610c5c57829003601f168201915b50505050508152602001600282018054610c9290614673565b80601f0160208091040260200160405190810160405280929190818152602001828054610cbe90614673565b8015610d0b5780601f10610ce057610100808354040283529160200191610d0b565b820191906000526020600020905b815481529060010190602001808311610cee57829003601f168201915b505050505081525050905080915050919050565b600080600090505b600880549050811015610dc25760088181548110610d4857610d476147b5565b5b9060005260206000200160009054906101000a900473ffffffffffffffffffffffffffffffffffffffff1673ffffffffffffffffffffffffffffffffffffffff163373ffffffffffffffffffffffffffffffffffffffff1603610daf576001915050610dc4565b8080610dba90614813565b915050610d27565b505b90565b60606000600380549050905060008167ffffffffffffffff811115610def57610dee613c4a565b5b604051908082528060200260200182016040528015610e2857816020015b610e156137bc565b815260200190600190039081610e0d5790505b50905060005b82811015610fc357600060038281548110610e4c57610e4b6147b5565b5b90600052602060002001549050600260008281526020019081526020016000206040518060e001604052908160008201548152602001600182018054610e9190614673565b80601f0160208091040260200160405190810160405280929190818152602001828054610ebd90614673565b8015610f0a5780601f10610edf57610100808354040283529160200191610f0a565b820191906000526020600020905b815481529060010190602001808311610eed57829003601f168201915b50505050508152602001600282015481526020016003820154815260200160048201548152602001600582015481526020016006820160009054906101000a900473ffffffffffffffffffffffffffffffffffffffff1673ffffffffffffffffffffffffffffffffffffffff1673ffffffffffffffffffffffffffffffffffffffff1681525050838381518110610fa457610fa36147b5565b5b6020026020010181905250508080610fbb90614813565b915050610e2e565b50809250505090565b600080600090505b60068054905081101561106f5760068181548110610ff557610ff46147b5565b5b9060005260206000200160009054906101000a900473ffffffffffffffffffffffffffffffffffffffff1673ffffffffffffffffffffffffffffffffffffffff163373ffffffffffffffffffffffffffffffffffffffff160361105c576001915050611071565b808061106790614813565b915050610fd4565b505b90565b60006040518060e0016040528088815260200187815260200186815260200185815260200184815260200184866110ab919061485b565b81526020018373ffffffffffffffffffffffffffffffffffffffff168152509050600560008973ffffffffffffffffffffffffffffffffffffffff1673ffffffffffffffffffffffffffffffffffffffff1681526020019081526020016000208190806001815401808255809150506001900390600052602060002090600702016000909190919091506000820151816000015560208201518160010190816111549190614a3f565b5060408201518160020155606082015181600301556080820151816004015560a0820151816005015560c08201518160060160006101000a81548173ffffffffffffffffffffffffffffffffffffffff021916908373ffffffffffffffffffffffffffffffffffffffff16021790555050505050505050505050565b60005b60038054905081101561125c5781600382815481106111f5576111f46147b5565b5b906000526020600020015403611249576112436040518060400160405280601081526020017f74727920646966666572656e742049440000000000000000000000000000000081525061085b565b50611480565b808061125490614813565b9150506111d3565b5060006040518060e001604052808381526020018881526020018781526020018681526020018581526020018587611294919061485b565b81526020018473ffffffffffffffffffffffffffffffffffffffff168152509050600960008473ffffffffffffffffffffffffffffffffffffffff1673ffffffffffffffffffffffffffffffffffffffff16815260200190815260200160002081908060018154018082558091505060019003906000526020600020906007020160009091909190915060008201518160000155602082015181600101908161133d9190614a3f565b5060408201518160020155606082015181600301556080820151816004015560a0820151816005015560c08201518160060160006101000a81548173ffffffffffffffffffffffffffffffffffffffff021916908373ffffffffffffffffffffffffffffffffffffffff160217905550505080600260008481526020019081526020016000206000820151816000015560208201518160010190816113e29190614a3f565b5060408201518160020155606082015181600301556080820151816004015560a0820151816005015560c08201518160060160006101000a81548173ffffffffffffffffffffffffffffffffffffffff021916908373ffffffffffffffffffffffffffffffffffffffff1602179055509050506003829080600181540180825580915050600190039060005260206000200160009091909190915055505b505050505050565b6000805b600560008673ffffffffffffffffffffffffffffffffffffffff1673ffffffffffffffffffffffffffffffffffffffff168152602001908152602001600020805490508110156115c257600560008673ffffffffffffffffffffffffffffffffffffffff1673ffffffffffffffffffffffffffffffffffffffff1681526020019081526020016000208181548110611527576115266147b5565b5b90600052602060002090600702016000015484036115af576001915082600560008773ffffffffffffffffffffffffffffffffffffffff1673ffffffffffffffffffffffffffffffffffffffff1681526020019081526020016000208281548110611595576115946147b5565b5b9060005260206000209060070201600401819055506115c2565b80806115ba90614813565b91505061148c565b50806115ea576115e9604051806060016040528060268152602001614d136026913961085b565b5b50505050565b60008060005b600960008673ffffffffffffffffffffffffffffffffffffffff1673ffffffffffffffffffffffffffffffffffffffff168152602001908152602001600020805490508110156116c857600960008673ffffffffffffffffffffffffffffffffffffffff1673ffffffffffffffffffffffffffffffffffffffff1681526020019081526020016000208181548110611691576116906147b5565b5b90600052602060002090600702016000015484036116b557600191508092506116c8565b80806116c090614813565b9150506115f6565b5080156119825760008290505b6001600960008773ffffffffffffffffffffffffffffffffffffffff1673ffffffffffffffffffffffffffffffffffffffff168152602001908152602001600020805490506117249190614b11565b8110156118b957600960008673ffffffffffffffffffffffffffffffffffffffff1673ffffffffffffffffffffffffffffffffffffffff1681526020019081526020016000206001826117779190614b45565b81548110611788576117876147b5565b5b9060005260206000209060070201600960008773ffffffffffffffffffffffffffffffffffffffff1673ffffffffffffffffffffffffffffffffffffffff16815260200190815260200160002082815481106117e7576117e66147b5565b5b906000526020600020906007020160008201548160000155600182018160010190816118139190614b8f565b50600282015481600201556003820154816003015560048201548160040155600582015481600501556006820160009054906101000a900473ffffffffffffffffffffffffffffffffffffffff168160060160006101000a81548173ffffffffffffffffffffffffffffffffffffffff021916908373ffffffffffffffffffffffffffffffffffffffff16021790555090505080806118b190614813565b9150506116d5565b600960008673ffffffffffffffffffffffffffffffffffffffff1673ffffffffffffffffffffffffffffffffffffffff16815260200190815260200160002080548061190857611907614c77565b5b6001900381819060005260206000209060070201600080820160009055600182016000611935919061380f565b60028201600090556003820160009055600482016000905560058201600090556006820160006101000a81549073ffffffffffffffffffffffffffffffffffffffff021916905550509055505b60005b600380549050811015611a775783600382815481106119a7576119a66147b5565b5b906000526020600020015403611a645760008190505b60016003805490506119cf9190614b11565b811015611a365760036001826119e59190614b45565b815481106119f6576119f56147b5565b5b906000526020600020015460038281548110611a1557611a146147b5565b5b90600052602060002001819055508080611a2e90614813565b9150506119bd565b506003805480611a4957611a48614c77565b5b60019003818190600052602060002001600090559055611a77565b8080611a6f90614813565b915050611985565b5050505050565b6000600760008573ffffffffffffffffffffffffffffffffffffffff1673ffffffffffffffffffffffffffffffffffffffff1681526020019081526020016000206001018054611acd90614673565b90501115611b10576040517f08c379a0000000000000000000000000000000000000000000000000000000008152600401611b0790614cf2565b60405180910390fd5b60405180606001604052808473ffffffffffffffffffffffffffffffffffffffff16815260200183815260200182815250600760008573ffffffffffffffffffffffffffffffffffffffff1673ffffffffffffffffffffffffffffffffffffffff16815260200190815260200160002060008201518160000160006101000a81548173ffffffffffffffffffffffffffffffffffffffff021916908373ffffffffffffffffffffffffffffffffffffffff1602179055506020820151816001019081611bdc9190614a3f565b506040820151816002019081611bf29190614a3f565b509050506008839080600181540180825580915050600190039060005260206000200160009091909190916101000a81548173ffffffffffffffffffffffffffffffffffffffff021916908373ffffffffffffffffffffffffffffffffffffffff160217905550505050565b606060008060005b600560008773ffffffffffffffffffffffffffffffffffffffff1673ffffffffffffffffffffffffffffffffffffffff16815260200190815260200160002080549050811015611d3857600560008773ffffffffffffffffffffffffffffffffffffffff1673ffffffffffffffffffffffffffffffffffffffff1681526020019081526020016000208181548110611d0157611d006147b5565b5b9060005260206000209060070201600001548503611d255760019150809250611d38565b8080611d3090614813565b915050611c66565b5080156121a95760008290505b6001600560008873ffffffffffffffffffffffffffffffffffffffff1673ffffffffffffffffffffffffffffffffffffffff16815260200190815260200160002080549050611d949190614b11565b811015611f2957600560008773ffffffffffffffffffffffffffffffffffffffff1673ffffffffffffffffffffffffffffffffffffffff168152602001908152602001600020600182611de79190614b45565b81548110611df857611df76147b5565b5b9060005260206000209060070201600560008873ffffffffffffffffffffffffffffffffffffffff1673ffffffffffffffffffffffffffffffffffffffff1681526020019081526020016000208281548110611e5757611e566147b5565b5b90600052602060002090600702016000820154816000015560018201816001019081611e839190614b8f565b50600282015481600201556003820154816003015560048201548160040155600582015481600501556006820160009054906101000a900473ffffffffffffffffffffffffffffffffffffffff168160060160006101000a81548173ffffffffffffffffffffffffffffffffffffffff021916908373ffffffffffffffffffffffffffffffffffffffff1602179055509050508080611f2190614813565b915050611d45565b600560008773ffffffffffffffffffffffffffffffffffffffff1673ffffffffffffffffffffffffffffffffffffffff168152602001908152602001600020805480611f7857611f77614c77565b5b6001900381819060005260206000209060070201600080820160009055600182016000611fa5919061380f565b60028201600090556003820160009055600482016000905560058201600090556006820160006101000a81549073ffffffffffffffffffffffffffffffffffffffff021916905550509055600560008773ffffffffffffffffffffffffffffffffffffffff1673ffffffffffffffffffffffffffffffffffffffff168152602001908152602001600020805480602002602001604051908101604052809291908181526020016000905b8282101561219b57838290600052602060002090600702016040518060e00160405290816000820154815260200160018201805461208c90614673565b80601f01602080910402602001604051908101604052809291908181526020018280546120b890614673565b80156121055780601f106120da57610100808354040283529160200191612105565b820191906000526020600020905b8154815290600101906020018083116120e857829003601f168201915b50505050508152602001600282015481526020016003820154815260200160048201548152602001600582015481526020016006820160009054906101000a900473ffffffffffffffffffffffffffffffffffffffff1673ffffffffffffffffffffffffffffffffffffffff1673ffffffffffffffffffffffffffffffffffffffff16815250508152602001906001019061204f565b50505050935050505061235d565b600560008673ffffffffffffffffffffffffffffffffffffffff1673ffffffffffffffffffffffffffffffffffffffff168152602001908152602001600020805480602002602001604051908101604052809291908181526020016000905b8282101561235457838290600052602060002090600702016040518060e00160405290816000820154815260200160018201805461224590614673565b80601f016020809104026020016040519081016040528092919081815260200182805461227190614673565b80156122be5780601f10612293576101008083540402835291602001916122be565b820191906000526020600020905b8154815290600101906020018083116122a157829003601f168201915b50505050508152602001600282015481526020016003820154815260200160048201548152602001600582015481526020016006820160009054906101000a900473ffffffffffffffffffffffffffffffffffffffff1673ffffffffffffffffffffffffffffffffffffffff1673ffffffffffffffffffffffffffffffffffffffff168152505081526020019060010190612208565b50505050925050505b92915050565b6000805b600560008473ffffffffffffffffffffffffffffffffffffffff1673ffffffffffffffffffffffffffffffffffffffff1681526020019081526020016000208054905081101561243457600560008473ffffffffffffffffffffffffffffffffffffffff1673ffffffffffffffffffffffffffffffffffffffff1681526020019081526020016000208181548110612402576124016147b5565b5b9060005260206000209060070201600501548261241f9190614b45565b9150808061242c90614813565b915050612367565b50600560008373ffffffffffffffffffffffffffffffffffffffff1673ffffffffffffffffffffffffffffffffffffffff168152602001908152602001600020600081548110612487576124866147b5565b5b906000526020600020906007020160060160009054906101000a900473ffffffffffffffffffffffffffffffffffffffff1673ffffffffffffffffffffffffffffffffffffffff166108fc829081150290604051600060405180830381858888f193505050501580156124fe573d6000803e3d6000fd5b50600a54600b60008473ffffffffffffffffffffffffffffffffffffffff1673ffffffffffffffffffffffffffffffffffffffff16815260200190815260200160002081905550600560008373ffffffffffffffffffffffffffffffffffffffff1673ffffffffffffffffffffffffffffffffffffffff168152602001908152602001600020600c6000600a5481526020019081526020016000209080546125a792919061384f565b50600a60008154809291906125bb90614813565b91905055506000805b60096000600560008773ffffffffffffffffffffffffffffffffffffffff1673ffffffffffffffffffffffffffffffffffffffff16815260200190815260200160002060008154811061261a576126196147b5565b5b906000526020600020906007020160060160009054906101000a900473ffffffffffffffffffffffffffffffffffffffff1673ffffffffffffffffffffffffffffffffffffffff1673ffffffffffffffffffffffffffffffffffffffff168152602001908152602001600020805490508110156129af575b600560008573ffffffffffffffffffffffffffffffffffffffff1673ffffffffffffffffffffffffffffffffffffffff1681526020019081526020016000208054905082101561299c57600560008573ffffffffffffffffffffffffffffffffffffffff1673ffffffffffffffffffffffffffffffffffffffff168152602001908152602001600020828154811061272d5761272c6147b5565b5b90600052602060002090600702016000015460096000600560008873ffffffffffffffffffffffffffffffffffffffff1673ffffffffffffffffffffffffffffffffffffffff168152602001908152602001600020600081548110612795576127946147b5565b5b906000526020600020906007020160060160009054906101000a900473ffffffffffffffffffffffffffffffffffffffff1673ffffffffffffffffffffffffffffffffffffffff1673ffffffffffffffffffffffffffffffffffffffff1681526020019081526020016000208281548110612813576128126147b5565b5b9060005260206000209060070201600001540361299757600560008573ffffffffffffffffffffffffffffffffffffffff1673ffffffffffffffffffffffffffffffffffffffff168152602001908152602001600020828154811061287b5761287a6147b5565b5b90600052602060002090600702016004015460096000600560008873ffffffffffffffffffffffffffffffffffffffff1673ffffffffffffffffffffffffffffffffffffffff1681526020019081526020016000206000815481106128e3576128e26147b5565b5b906000526020600020906007020160060160009054906101000a900473ffffffffffffffffffffffffffffffffffffffff1673ffffffffffffffffffffffffffffffffffffffff1673ffffffffffffffffffffffffffffffffffffffff1681526020019081526020016000208281548110612961576129606147b5565b5b906000526020600020906007020160040160008282546129819190614b11565b92505081905550818061299390614813565b9250505b612692565b80806129a790614813565b9150506125c4565b505b6000600560008573ffffffffffffffffffffffffffffffffffffffff1673ffffffffffffffffffffffffffffffffffffffff168152602001908152602001600020805490501115612ac857600560008473ffffffffffffffffffffffffffffffffffffffff1673ffffffffffffffffffffffffffffffffffffffff168152602001908152602001600020805480612a4b57612a4a614c77565b5b6001900381819060005260206000209060070201600080820160009055600182016000612a78919061380f565b60028201600090556003820160009055600482016000905560058201600090556006820160006101000a81549073ffffffffffffffffffffffffffffffffffffffff0219169055505090556129b1565b505050565b612ad56137bc565b6000600260008481526020019081526020016000206040518060e001604052908160008201548152602001600182018054612b0f90614673565b80601f0160208091040260200160405190810160405280929190818152602001828054612b3b90614673565b8015612b885780601f10612b5d57610100808354040283529160200191612b88565b820191906000526020600020905b815481529060010190602001808311612b6b57829003601f168201915b50505050508152602001600282015481526020016003820154815260200160048201548152602001600582015481526020016006820160009054906101000a900473ffffffffffffffffffffffffffffffffffffffff1673ffffffffffffffffffffffffffffffffffffffff1673ffffffffffffffffffffffffffffffffffffffff1681525050905080915050919050565b6000600460008573ffffffffffffffffffffffffffffffffffffffff1673ffffffffffffffffffffffffffffffffffffffff1681526020019081526020016000206001018054612c6990614673565b90501115612cac576040517f08c379a0000000000000000000000000000000000000000000000000000000008152600401612ca390614cf2565b60405180910390fd5b60405180606001604052808473ffffffffffffffffffffffffffffffffffffffff16815260200183815260200182815250600460008573ffffffffffffffffffffffffffffffffffffffff1673ffffffffffffffffffffffffffffffffffffffff16815260200190815260200160002060008201518160000160006101000a81548173ffffffffffffffffffffffffffffffffffffffff021916908373ffffffffffffffffffffffffffffffffffffffff1602179055506020820151816001019081612d789190614a3f565b506040820151816002019081612d8e9190614a3f565b509050506006839080600181540180825580915050600190039060005260206000200160009091909190916101000a81548173ffffffffffffffffffffffffffffffffffffffff021916908373ffffffffffffffffffffffffffffffffffffffff160217905550505050565b6000805b600960008473ffffffffffffffffffffffffffffffffffffffff1673ffffffffffffffffffffffffffffffffffffffff16815260200190815260200160002080549050811015612f3457600960008473ffffffffffffffffffffffffffffffffffffffff1673ffffffffffffffffffffffffffffffffffffffff1681526020019081526020016000208181548110612e9957612e986147b5565b5b9060005260206000209060070201600001548503612f21576001915083600960008573ffffffffffffffffffffffffffffffffffffffff1673ffffffffffffffffffffffffffffffffffffffff1681526020019081526020016000208281548110612f0757612f066147b5565b5b906000526020600020906007020160040181905550612f34565b8080612f2c90614813565b915050612dfe565b5080612f5c57612f5b604051806060016040528060268152602001614d136026913961085b565b5b50505050565b60606000600680549050905060008167ffffffffffffffff811115612f8a57612f89613c4a565b5b604051908082528060200260200182016040528015612fc357816020015b612fb0613785565b815260200190600190039081612fa85790505b50905060005b8281101561320a57600060068281548110612fe757612fe66147b5565b5b9060005260206000200160009054906101000a900473ffffffffffffffffffffffffffffffffffffffff169050600460008273ffffffffffffffffffffffffffffffffffffffff1673ffffffffffffffffffffffffffffffffffffffff1681526020019081526020016000206040518060600160405290816000820160009054906101000a900473ffffffffffffffffffffffffffffffffffffffff1673ffffffffffffffffffffffffffffffffffffffff1673ffffffffffffffffffffffffffffffffffffffff1681526020016001820180546130c490614673565b80601f01602080910402602001604051908101604052809291908181526020018280546130f090614673565b801561313d5780601f106131125761010080835404028352916020019161313d565b820191906000526020600020905b81548152906001019060200180831161312057829003601f168201915b5050505050815260200160028201805461315690614673565b80601f016020809104026020016040519081016040528092919081815260200182805461318290614673565b80156131cf5780601f106131a4576101008083540402835291602001916131cf565b820191906000526020600020905b8154815290600101906020018083116131b257829003601f168201915b5050505050815250508383815181106131eb576131ea6147b5565b5b602002602001018190525050808061320290614813565b915050612fc9565b50809250505090565b6060600560008373ffffffffffffffffffffffffffffffffffffffff1673ffffffffffffffffffffffffffffffffffffffff168152602001908152602001600020805480602002602001604051908101604052809291908181526020016000905b828210156133c057838290600052602060002090600702016040518060e0016040529081600082015481526020016001820180546132b190614673565b80601f01602080910402602001604051908101604052809291908181526020018280546132dd90614673565b801561332a5780601f106132ff5761010080835404028352916020019161332a565b820191906000526020600020905b81548152906001019060200180831161330d57829003601f168201915b50505050508152602001600282015481526020016003820154815260200160048201548152602001600582015481526020016006820160009054906101000a900473ffffffffffffffffffffffffffffffffffffffff1673ffffffffffffffffffffffffffffffffffffffff1673ffffffffffffffffffffffffffffffffffffffff168152505081526020019060010190613274565b505050509050919050565b6060600c6000600b60008573ffffffffffffffffffffffffffffffffffffffff1673ffffffffffffffffffffffffffffffffffffffff168152602001908152602001600020548152602001908152602001600020805480602002602001604051908101604052809291908181526020016000905b8282101561358b57838290600052602060002090600702016040518060e00160405290816000820154815260200160018201805461347c90614673565b80601f01602080910402602001604051908101604052809291908181526020018280546134a890614673565b80156134f55780601f106134ca576101008083540402835291602001916134f5565b820191906000526020600020905b8154815290600101906020018083116134d857829003601f168201915b50505050508152602001600282015481526020016003820154815260200160048201548152602001600582015481526020016006820160009054906101000a900473ffffffffffffffffffffffffffffffffffffffff1673ffffffffffffffffffffffffffffffffffffffff1673ffffffffffffffffffffffffffffffffffffffff16815250508152602001906001019061343f565b505050509050919050565b6060600960008373ffffffffffffffffffffffffffffffffffffffff1673ffffffffffffffffffffffffffffffffffffffff168152602001908152602001600020805480602002602001604051908101604052809291908181526020016000905b8282101561374357838290600052602060002090600702016040518060e00160405290816000820154815260200160018201805461363490614673565b80601f016020809104026020016040519081016040528092919081815260200182805461366090614673565b80156136ad5780601f10613682576101008083540402835291602001916136ad565b820191906000526020600020905b81548152906001019060200180831161369057829003601f168201915b50505050508152602001600282015481526020016003820154815260200160048201548152602001600582015481526020016006820160009054906101000a900473ffffffffffffffffffffffffffffffffffffffff1673ffffffffffffffffffffffffffffffffffffffff1673ffffffffffffffffffffffffffffffffffffffff1681525050815260200190600101906135f7565b505050509050919050565b6040518060600160405280600073ffffffffffffffffffffffffffffffffffffffff16815260200160608152602001606081525090565b6040518060600160405280600073ffffffffffffffffffffffffffffffffffffffff16815260200160608152602001606081525090565b6040518060e00160405280600081526020016060815260200160008152602001600081526020016000815260200160008152602001600073ffffffffffffffffffffffffffffffffffffffff1681525090565b50805461381b90614673565b6000825580601f1061382d575061384c565b601f01602090049060005260206000209081019061384b9190613955565b5b50565b8280548282559060005260206000209060070281019282156139445760005260206000209160070282015b8281111561394357828260008201548160000155600182018160010190816138a29190614b8f565b50600282015481600201556003820154816003015560048201548160040155600582015481600501556006820160009054906101000a900473ffffffffffffffffffffffffffffffffffffffff168160060160006101000a81548173ffffffffffffffffffffffffffffffffffffffff021916908373ffffffffffffffffffffffffffffffffffffffff16021790555050509160070191906007019061387a565b5b5090506139519190613972565b5090565b5b8082111561396e576000816000905550600101613956565b5090565b5b808211156139e457600080820160009055600182016000613994919061380f565b60028201600090556003820160009055600482016000905560058201600090556006820160006101000a81549073ffffffffffffffffffffffffffffffffffffffff021916905550600701613973565b5090565b6000604051905090565b600080fd5b600080fd5b600073ffffffffffffffffffffffffffffffffffffffff82169050919050565b6000613a27826139fc565b9050919050565b613a3781613a1c565b8114613a4257600080fd5b50565b600081359050613a5481613a2e565b92915050565b600060208284031215613a7057613a6f6139f2565b5b6000613a7e84828501613a45565b91505092915050565b613a9081613a1c565b82525050565b600081519050919050565b600082825260208201905092915050565b60005b83811015613ad0578082015181840152602081019050613ab5565b60008484015250505050565b6000601f19601f8301169050919050565b6000613af882613a96565b613b028185613aa1565b9350613b12818560208601613ab2565b613b1b81613adc565b840191505092915050565b6000606083016000830151613b3e6000860182613a87565b5060208301518482036020860152613b568282613aed565b91505060408301518482036040860152613b708282613aed565b9150508091505092915050565b60006020820190508181036000830152613b978184613b26565b905092915050565b6000613baa826139fc565b9050919050565b613bba81613b9f565b8114613bc557600080fd5b50565b600081359050613bd781613bb1565b92915050565b600060208284031215613bf357613bf26139f2565b5b6000613c0184828501613bc8565b91505092915050565b60008115159050919050565b613c1f81613c0a565b82525050565b6000602082019050613c3a6000830184613c16565b92915050565b600080fd5b600080fd5b7f4e487b7100000000000000000000000000000000000000000000000000000000600052604160045260246000fd5b613c8282613adc565b810181811067ffffffffffffffff82111715613ca157613ca0613c4a565b5b80604052505050565b6000613cb46139e8565b9050613cc08282613c79565b919050565b600067ffffffffffffffff821115613ce057613cdf613c4a565b5b613ce982613adc565b9050602081019050919050565b82818337600083830152505050565b6000613d18613d1384613cc5565b613caa565b905082815260208101848484011115613d3457613d33613c45565b5b613d3f848285613cf6565b509392505050565b600082601f830112613d5c57613d5b613c40565b5b8135613d6c848260208601613d05565b91505092915050565b600060208284031215613d8b57613d8a6139f2565b5b600082013567ffffffffffffffff811115613da957613da86139f7565b5b613db584828501613d47565b91505092915050565b600081519050919050565b600082825260208201905092915050565b6000819050602082019050919050565b6000606083016000830151613e026000860182613a87565b5060208301518482036020860152613e1a8282613aed565b91505060408301518482036040860152613e348282613aed565b9150508091505092915050565b6000613e4d8383613dea565b905092915050565b6000602082019050919050565b6000613e6d82613dbe565b613e778185613dc9565b935083602082028501613e8985613dda565b8060005b85811015613ec55784840389528151613ea68582613e41565b9450613eb183613e55565b925060208a01995050600181019050613e8d565b50829750879550505050505092915050565b60006020820190508181036000830152613ef18184613e62565b905092915050565b6000606083016000830151613f116000860182613a87565b5060208301518482036020860152613f298282613aed565b91505060408301518482036040860152613f438282613aed565b9150508091505092915050565b60006020820190508181036000830152613f6a8184613ef9565b905092915050565b600081519050919050565b600082825260208201905092915050565b6000819050602082019050919050565b6000819050919050565b613fb181613f9e565b82525050565b613fc081613b9f565b82525050565b600060e083016000830151613fde6000860182613fa8565b5060208301518482036020860152613ff68282613aed565b915050604083015161400b6040860182613fa8565b50606083015161401e6060860182613fa8565b5060808301516140316080860182613fa8565b5060a083015161404460a0860182613fa8565b5060c083015161405760c0860182613fb7565b508091505092915050565b600061406e8383613fc6565b905092915050565b6000602082019050919050565b600061408e82613f72565b6140988185613f7d565b9350836020820285016140aa85613f8e565b8060005b858110156140e657848403895281516140c78582614062565b94506140d283614076565b925060208a019950506001810190506140ae565b50829750879550505050505092915050565b600060208201905081810360008301526141128184614083565b905092915050565b61412381613f9e565b811461412e57600080fd5b50565b6000813590506141408161411a565b92915050565b600080600080600080600060e0888a031215614165576141646139f2565b5b60006141738a828b01613a45565b97505060206141848a828b01614131565b965050604088013567ffffffffffffffff8111156141a5576141a46139f7565b5b6141b18a828b01613d47565b95505060606141c28a828b01614131565b94505060806141d38a828b01614131565b93505060a06141e48a828b01614131565b92505060c06141f58a828b01613bc8565b91505092959891949750929550565b60008060008060008060c08789031215614221576142206139f2565b5b600087013567ffffffffffffffff81111561423f5761423e6139f7565b5b61424b89828a01613d47565b965050602061425c89828a01614131565b955050604061426d89828a01614131565b945050606061427e89828a01614131565b935050608061428f89828a01613bc8565b92505060a06142a089828a01614131565b9150509295509295509295565b6000806000606084860312156142c6576142c56139f2565b5b60006142d486828701613a45565b93505060206142e586828701614131565b92505060406142f686828701614131565b9150509250925092565b60008060408385031215614317576143166139f2565b5b600061432585828601613a45565b925050602061433685828601614131565b9150509250929050565b600080600060608486031215614359576143586139f2565b5b600061436786828701613a45565b935050602084013567ffffffffffffffff811115614388576143876139f7565b5b61439486828701613d47565b925050604084013567ffffffffffffffff8111156143b5576143b46139f7565b5b6143c186828701613d47565b9150509250925092565b6000602082840312156143e1576143e06139f2565b5b60006143ef84828501614131565b91505092915050565b600060e0830160008301516144106000860182613fa8565b50602083015184820360208601526144288282613aed565b915050604083015161443d6040860182613fa8565b5060608301516144506060860182613fa8565b5060808301516144636080860182613fa8565b5060a083015161447660a0860182613fa8565b5060c083015161448960c0860182613fb7565b508091505092915050565b600060208201905081810360008301526144ae81846143f8565b905092915050565b6000806000606084860312156144cf576144ce6139f2565b5b60006144dd86828701614131565b93505060206144ee86828701614131565b92505060406144ff86828701613a45565b9150509250925092565b600081519050919050565b600082825260208201905092915050565b6000819050602082019050919050565b600060608301600083015161454d6000860182613a87565b50602083015184820360208601526145658282613aed565b9150506040830151848203604086015261457f8282613aed565b9150508091505092915050565b60006145988383614535565b905092915050565b6000602082019050919050565b60006145b882614509565b6145c28185614514565b9350836020820285016145d485614525565b8060005b8581101561461057848403895281516145f1858261458c565b94506145fc836145a0565b925060208a019950506001810190506145d8565b50829750879550505050505092915050565b6000602082019050818103600083015261463c81846145ad565b905092915050565b7f4e487b7100000000000000000000000000000000000000000000000000000000600052602260045260246000fd5b6000600282049050600182168061468b57607f821691505b60208210810361469e5761469d614644565b5b50919050565b6000819050919050565b60006146c96146c46146bf846139fc565b6146a4565b6139fc565b9050919050565b60006146db826146ae565b9050919050565b60006146ed826146d0565b9050919050565b6146fd816146e2565b82525050565b61470c81613f9e565b82525050565b600060608201905061472760008301866146f4565b61473460208301856146f4565b6147416040830184614703565b949350505050565b600082825260208201905092915050565b600061476582613a96565b61476f8185614749565b935061477f818560208601613ab2565b61478881613adc565b840191505092915050565b600060208201905081810360008301526147ad818461475a565b905092915050565b7f4e487b7100000000000000000000000000000000000000000000000000000000600052603260045260246000fd5b7f4e487b7100000000000000000000000000000000000000000000000000000000600052601160045260246000fd5b600061481e82613f9e565b91507fffffffffffffffffffffffffffffffffffffffffffffffffffffffffffffffff82036148505761484f6147e4565b5b600182019050919050565b600061486682613f9e565b915061487183613f9e565b925082820261487f81613f9e565b91508282048414831517614896576148956147e4565b5b5092915050565b60008190508160005260206000209050919050565b60006020601f8301049050919050565b600082821b905092915050565b6000600883026148ff7fffffffffffffffffffffffffffffffffffffffffffffffffffffffffffffffff826148c2565b61490986836148c2565b95508019841693508086168417925050509392505050565b600061493c61493761493284613f9e565b6146a4565b613f9e565b9050919050565b6000819050919050565b61495683614921565b61496a61496282614943565b8484546148cf565b825550505050565b600090565b61497f614972565b61498a81848461494d565b505050565b5b818110156149ae576149a3600082614977565b600181019050614990565b5050565b601f8211156149f3576149c48161489d565b6149cd846148b2565b810160208510156149dc578190505b6149f06149e8856148b2565b83018261498f565b50505b505050565b600082821c905092915050565b6000614a16600019846008026149f8565b1980831691505092915050565b6000614a2f8383614a05565b9150826002028217905092915050565b614a4882613a96565b67ffffffffffffffff811115614a6157614a60613c4a565b5b614a6b8254614673565b614a768282856149b2565b600060209050601f831160018114614aa95760008415614a97578287015190505b614aa18582614a23565b865550614b09565b601f198416614ab78661489d565b60005b82811015614adf57848901518255600182019150602085019450602081019050614aba565b86831015614afc5784890151614af8601f891682614a05565b8355505b6001600288020188555050505b505050505050565b6000614b1c82613f9e565b9150614b2783613f9e565b9250828203905081811115614b3f57614b3e6147e4565b5b92915050565b6000614b5082613f9e565b9150614b5b83613f9e565b9250828201905080821115614b7357614b726147e4565b5b92915050565b600081549050614b8881614673565b9050919050565b818103614b9d575050614c75565b614ba682614b79565b67ffffffffffffffff811115614bbf57614bbe613c4a565b5b614bc98254614673565b614bd48282856149b2565b6000601f831160018114614c035760008415614bf1578287015490505b614bfb8582614a23565b865550614c6e565b601f198416614c118761489d565b9650614c1c8661489d565b60005b82811015614c4457848901548255600182019150600185019450602081019050614c1f565b86831015614c615784890154614c5d601f891682614a05565b8355505b6001600288020188555050505b5050505050505b565b7f4e487b7100000000000000000000000000000000000000000000000000000000600052603160045260246000fd5b7f5553455220455849535453000000000000000000000000000000000000000000600082015250565b6000614cdc600b83614749565b9150614ce782614ca6565b602082019050919050565b60006020820190508181036000830152614d0b81614ccf565b905091905056fe5472792077697468206974656d20616c7265616479206578697374696e6720696e2063617274a2646970667358221220f8e8ca95326a61efc907dd70971bb8653845b244296ad8b172c3a7b4287380ed64736f6c63430008130033",
  "immutableReferences": {},
  "source": "//SPDX-License-Identifier: Unlicense\r\npragma solidity ^0.8.19;\r\n\r\n\r\n// import \"@openzeppelin/contracts@4.5.0/utils/Counters.sol\";\r\n\r\ncontract Transfer {\r\n    address payable from;\r\n    address payable to;\r\n\r\n    /*\r\n    struct ItemStruct {\r\n        uint256 itemId;\r\n        string itemName;\r\n        uint256 categoryId;\r\n        uint256 itemPrice;\r\n        uint256 quantity;\r\n        uint256 pricePerQuantity;\r\n        address payable sellerId;\r\n    }\r\n\r\n    \r\n    //start of items section\r\n    mapping(uint256 => ItemStruct) private items; // mapping from item id to item details\r\n    uint256[] private itemIds; // array of all item ids\r\n\r\n    function getItemById(uint256 itemId) public view returns (ItemStruct memory) {\r\n        ItemStruct memory item = items[itemId];\r\n        return item;\r\n    }\r\n\r\n    function getAllItems() public view returns (ItemStruct[] memory) {\r\n        uint256 itemCount = itemIds.length;\r\n        ItemStruct[] memory itemsArray = new ItemStruct[](itemCount);\r\n        for (uint256 i = 0; i < itemCount; i++) {\r\n            uint256 itemId = itemIds[i];\r\n            itemsArray[i] = items[itemId];\r\n        }\r\n        return itemsArray;\r\n    }\r\n\r\n    //retailer functions\r\n    function addnewItemToInvt(string memory name,uint256 catId,uint256 price,uint256 quantity,address payable sellerId,uint256 itemId) public {\r\n        //check if itemID exists\r\n        for (uint256 i = 0; i < itemIds.length; i++) {\r\n            if (itemIds[i] == itemId) {\r\n                // print(\"try different ID\");\r\n                return;\r\n            }\r\n        }\r\n        ItemStruct memory temp = ItemStruct(itemId,name,catId,price,quantity,price * quantity,sellerId);\r\n        // retailerToInv[sellerId].push(temp);\r\n        //update items mapping\r\n        items[itemId] = temp;\r\n        itemIds.push(itemId);\r\n    }\r\n    */\r\n\r\n    constructor() {\r\n        from = payable(msg.sender);\r\n    }\r\n\r\n    event Pay(address _to, address _from, uint amt);\r\n\r\n    function pay(address payable _to) public payable returns (bool) {\r\n        to = _to;\r\n        to.transfer(msg.value);\r\n        emit Pay(to, from, msg.value);\r\n        return true;\r\n    }\r\n\r\n\r\n\r\n    /* */\r\n    /* */\r\n\r\n\r\n\r\n        // using Counters for Counters.Counter;\r\n\r\n\r\n    ///\r\n    /// only owner modifier is inherited from imported dependencies\r\n    ///\r\n\r\n    function isRetailer() public view returns(bool) {\r\n        for(uint256 i=0; i<retailerIds.length; i++){\r\n            if(msg.sender == retailerIds[i]){\r\n                return true;\r\n            }\r\n        }\r\n    }\r\n\r\n    modifier onlyRetailer() {\r\n        require(isRetailer());\r\n        _;\r\n    } \r\n\r\n    modifier onlyUser() {\r\n        require(isUser());\r\n        _;\r\n    } \r\n\r\n    function isUser() public view returns(bool) {\r\n        for(uint256 i=0; i<userIds.length; i++){\r\n            if(msg.sender == userIds[i]){\r\n                return true;\r\n            }\r\n        }\r\n    }\r\n\r\n\r\n    // Counters.Counter private _tokenIdCounter;\r\n    // address public scOwner;\r\n\r\n    // constructor() ERC721(\"Test2\", \"IC\") {\r\n    //     scOwner = msg.sender;\r\n    //     // Start token ID at 1. By default is starts at 0.\r\n    //     _tokenIdCounter.increment();\r\n    // }\r\n\r\n    //print\r\n    event LogMessage(string message);\r\n\r\n    function print(string memory message) public {\r\n        emit LogMessage(message);\r\n    }\r\n\r\n    struct ItemStruct {\r\n        uint256 itemId;\r\n        string itemName;\r\n        uint256 categoryId;\r\n        uint256 itemPrice;\r\n        uint256 quantity;\r\n        uint256 pricePerQuantity;\r\n        address payable sellerId;\r\n    }\r\n\r\n    //start of items section\r\n    mapping(uint256 => ItemStruct) private items; // mapping from item id to item details\r\n    uint256[] private itemIds; // array of all item ids\r\n\r\n    function getItemById(uint256 itemId) public view returns (ItemStruct memory) {\r\n        ItemStruct memory item = items[itemId];\r\n        return item;\r\n    }\r\n\r\n    function getAllItems() public view returns (ItemStruct[] memory) {\r\n        uint256 itemCount = itemIds.length;\r\n        ItemStruct[] memory itemsArray = new ItemStruct[](itemCount);\r\n        for (uint256 i = 0; i < itemCount; i++) {\r\n            uint256 itemId = itemIds[i];\r\n            itemsArray[i] = items[itemId];\r\n        }\r\n        return itemsArray;\r\n    }\r\n\r\n    struct UserStruct {\r\n        address userId;\r\n        string userName;\r\n        string homeAddress;\r\n    }\r\n\r\n    //end of item section\r\n\r\n    //start of user section\r\n    mapping(address => UserStruct) private idToUser;\r\n    mapping(address => ItemStruct[]) private userIdToCartList;\r\n    address[] private userIds;\r\n\r\n    function addUser(address userId,string memory name,string memory homeAddr) public {\r\n        if (bytes(idToUser[userId].userName).length > 0) {\r\n            revert(\"USER EXISTS\");\r\n        }\r\n        idToUser[userId] = UserStruct(userId, name, homeAddr);\r\n        userIds.push(userId);\r\n    }\r\n\r\n    function getAllUsers() public view returns (UserStruct[] memory) {\r\n        uint256 userCount = userIds.length;\r\n        UserStruct[] memory resUsers = new UserStruct[](userCount);\r\n        for (uint256 i = 0; i < userCount; i++) {\r\n            address tempId = userIds[i];\r\n            resUsers[i] = idToUser[tempId];\r\n        }\r\n        return resUsers;\r\n    }\r\n\r\n    function getUserById(address userId) public view returns (UserStruct memory) {\r\n        UserStruct memory user = idToUser[userId];\r\n        return user;\r\n    }\r\n\r\n    //cart operations\r\n\r\n    function addItemToCart(address userId, uint256 itemId,string memory name,uint256 catId,uint256 price,uint256 quantity,address payable sellerId) public {\r\n        ItemStruct memory temp = ItemStruct(itemId,name,catId,price,quantity,price * quantity,sellerId);\r\n        userIdToCartList[userId].push(temp);\r\n    }\r\n\r\n    function viewCart(address userId) public view returns (ItemStruct[] memory) {\r\n        return userIdToCartList[userId];\r\n    }\r\n\r\n    function updateCart(address userId, uint256 itemId, uint256 newQuant) public {\r\n        bool isExists = false;\r\n        for (uint256 i = 0; i < userIdToCartList[userId].length; i++) {\r\n            if (itemId == userIdToCartList[userId][i].itemId) {\r\n                isExists = true;\r\n                userIdToCartList[userId][i].quantity = newQuant;\r\n                break;\r\n            }\r\n        }\r\n        if(!isExists) {\r\n            print('Try with item already existing in cart');\r\n        }\r\n    }\r\n\r\n    function removeItemFromCart(address userId, uint256 itemId) public returns (ItemStruct[] memory) {\r\n        uint256 itemIndx = 0;\r\n        bool isExists = false;\r\n        for (uint256 i = 0; i < userIdToCartList[userId].length; i++) {\r\n            if (itemId == userIdToCartList[userId][i].itemId) {\r\n                isExists = true;\r\n                itemIndx = i;\r\n                break;\r\n            }\r\n        }\r\n\r\n        if (isExists) {\r\n            uint256 i = 0;\r\n            for (\r\n                i = itemIndx;\r\n                i < userIdToCartList[userId].length - 1;\r\n                i++\r\n            ) {\r\n                userIdToCartList[userId][i] = userIdToCartList[userId][\r\n                    i + 1\r\n                ];\r\n            }\r\n            userIdToCartList[userId].pop();\r\n            return userIdToCartList[userId];\r\n        }\r\n        return userIdToCartList[userId];\r\n    }\r\n\r\n    //end of user section\r\n\r\n    //start of retailer section\r\n\r\n    struct RetailerStruct {\r\n        address retailerId;\r\n        string retailerName;\r\n        string homeAddress;\r\n    }\r\n\r\n    mapping(address => RetailerStruct) private idToRetailer;\r\n    address[] private retailerIds;\r\n    mapping(address => ItemStruct[]) retailerToInv;\r\n\r\n    function addRetailer(address retailerId,string memory name,string memory homeAddr) public {\r\n        if (bytes(idToRetailer[retailerId].retailerName).length > 0) {\r\n            revert(\"USER EXISTS\");\r\n        }\r\n        idToRetailer[retailerId] = RetailerStruct(retailerId, name, homeAddr);\r\n        retailerIds.push(retailerId);\r\n    }\r\n\r\n    function getRetailerById(address retId) public view returns (RetailerStruct memory) {\r\n        RetailerStruct memory retailer = idToRetailer[retId];\r\n        return retailer;\r\n    }\r\n\r\n    function getAllRetailer() public view returns (RetailerStruct[] memory) {\r\n        uint256 userCount = retailerIds.length;\r\n        RetailerStruct[] memory resUsers = new RetailerStruct[](userCount);\r\n        for (uint256 i = 0; i < userCount; i++) {\r\n            address tempId = retailerIds[i];\r\n            resUsers[i] = idToRetailer[tempId];\r\n        }\r\n        return resUsers;\r\n    }\r\n\r\n    //retailer functions\r\n    function addnewItemToInvt(string memory name,uint256 catId,uint256 price,uint256 quantity,address payable sellerId,uint256 itemId) public {\r\n        //check if itemID exists\r\n        for (uint256 i = 0; i < itemIds.length; i++) {\r\n            if (itemIds[i] == itemId) {\r\n                print(\"try different ID\");\r\n                return;\r\n            }\r\n        }\r\n        ItemStruct memory temp = ItemStruct(itemId,name,catId,price,quantity,price * quantity,sellerId);\r\n        retailerToInv[sellerId].push(temp);\r\n        //update items mapping\r\n        items[itemId] = temp;\r\n        itemIds.push(itemId);\r\n    }\r\n\r\n    function viewInventory(address sellerId) public view returns (ItemStruct[] memory) {\r\n        return retailerToInv[sellerId];\r\n    }\r\n\r\n    function UpdateInventory(uint256 itemId,uint256 newQuant,address sellerId) public {\r\n        bool isExists = false;\r\n        for (uint256 i = 0; i < retailerToInv[sellerId].length; i++) {\r\n            if (itemId == retailerToInv[sellerId][i].itemId) {\r\n                isExists = true;\r\n                retailerToInv[sellerId][i].quantity = newQuant;\r\n                break;\r\n            }\r\n        }\r\n        if(!isExists) {\r\n            print('Try with item already existing in cart');\r\n        }\r\n    }\r\n\r\n    function removeItemInventory(address retailerId, uint256 itemId) public {\r\n        uint256 itemIndx = 0;\r\n        bool isExists = false;\r\n        for (uint256 i = 0; i < retailerToInv[retailerId].length; i++) {\r\n            if (itemId == retailerToInv[retailerId][i].itemId) {\r\n                isExists = true;\r\n                itemIndx = i;\r\n                break;\r\n            }\r\n        }\r\n\r\n        if (isExists) {\r\n            uint256 i = 0;\r\n            for (i = itemIndx; i < retailerToInv[retailerId].length - 1; i++) {\r\n                retailerToInv[retailerId][i] = retailerToInv[retailerId][i + 1];\r\n            }\r\n            retailerToInv[retailerId].pop();\r\n        }\r\n\r\n        for (uint256 i = 0; i < itemIds.length; i++) {\r\n            if (itemIds[i] == itemId) {\r\n                for (uint256 j = i; j < itemIds.length - 1; j++) {\r\n                    itemIds[j] = itemIds[j + 1];\r\n                }\r\n                itemIds.pop();\r\n                break;\r\n            }\r\n        }\r\n    }\r\n\r\n    uint256 orderIdCounter = 0;\r\n    mapping(address => uint256) userToOrderId;\r\n    mapping(uint256 => ItemStruct[]) orderToDetails;\r\n\r\n    function viewOrdersByUserId(address userId) public view returns(ItemStruct[] memory) {\r\n        return orderToDetails[userToOrderId[userId]];\r\n    } \r\n\r\n    function placeOrder(address userId) public payable {\r\n        //  Check that totalSupply is less than MAX_SUPPLY\r\n        //require(totalSupply() < MAX_SUPPLY, \"Can't mint anymore tokens.\");\r\n\r\n        //check if payment is more than min amount\r\n        // ItemStruct[] memory temp = userIdToCartList[userId];\r\n        uint256 final_amount =0;\r\n        for(uint256 i=0; i<userIdToCartList[userId].length; i++) {\r\n            final_amount += userIdToCartList[userId][i].pricePerQuantity;\r\n        }\r\n\r\n        userIdToCartList[userId][0].sellerId.transfer(final_amount);\r\n        userToOrderId[userId] = orderIdCounter;\r\n        orderToDetails[orderIdCounter] = userIdToCartList[userId];\r\n        orderIdCounter++;\r\n\r\n        // ItemStruct[] memory prevInv = retailerToInv[userIdToCartList[userId][0].sellerId];\r\n        uint256 j =0;\r\n        // uint256 k =0;\r\n        for(uint256 i = 0; i<retailerToInv[userIdToCartList[userId][0].sellerId].length; i++) {\r\n            while(j < userIdToCartList[userId].length) {\r\n                if(retailerToInv[userIdToCartList[userId][0].sellerId][i].itemId == userIdToCartList[userId][j].itemId) {\r\n                    retailerToInv[userIdToCartList[userId][0].sellerId][i].quantity -= userIdToCartList[userId][j].quantity;\r\n                    j++;\r\n                }\r\n            }\r\n        }\r\n        \r\n        while(userIdToCartList[userId].length > 0) {\r\n            userIdToCartList[userId].pop();\r\n        }\r\n        \r\n\r\n        // require(final_amount >= 5, \"Wont get any NFT\");\r\n        // uint256 tokenId = _tokenIdCounter.current();\r\n        // _tokenIdCounter.increment();\r\n        // _safeMint(userId, tokenId);\r\n\r\n    } \r\n\r\n    // function viewOrdersByRetailerId(address retailerId) public view returns(ItemStruct[] memory) {\r\n\r\n    // } \r\n\r\n\r\n\r\n\r\n/*\r\n    //===============================================//\r\n    // ===== 5. Other Functions ===== //\r\n\r\n    function _baseURI() internal pure override returns (string memory) {\r\n        return \"ipfs://happyMonkeyBaseURI/\";\r\n    }\r\n\r\n    function _beforeTokenTransfer(address from, address to, uint256 tokenId) internal\r\n        override(ERC721, ERC721Enumerable)\r\n    {\r\n        super._beforeTokenTransfer(from, to, tokenId);\r\n    }\r\n\r\n    // The following functions are overrides required by Solidity.\r\n\r\n    function supportsInterface(bytes4 interfaceId)\r\n        public\r\n        view\r\n        override(ERC721, ERC721Enumerable)\r\n        returns (bool)\r\n    {\r\n        return super.supportsInterface(interfaceId);\r\n    }\r\n    */\r\n\r\n}\r\n",
  "sourcePath": "C:\\Users\\manda\\Desktop\\My course work\\Spring23\\CSE 526\\project\\my trails\\latest-angular-dapp-1\\ethdapp\\truffle\\contracts\\Transfer.sol",
  "compiler": {
    "name": "solc",
    "version": "0.8.19+commit.7dd6d404.Emscripten.clang"
  },
  "schemaVersion": "3.4.13",
  "updatedAt": "2023-04-27T01:56:29.068Z",
  "networkType": "ethereum",
  "devdoc": {
    "kind": "dev",
    "methods": {},
    "version": 1
  },
  "userdoc": {
    "kind": "user",
    "methods": {
      "isRetailer()": {
        "notice": " only owner modifier is inherited from imported dependencies"
      }
    },
    "version": 1
  }
}